:100000000C940C010C9434010C9434010C943401C4
:100010000C9434010C9434010C9434010C94BF12F0
:100020000C9434010C9434010C9434010C9434017C
:100030000C9434010C9434010C9434010C9434016C
:100040000C94B00D0C9434010C9420110C945211AA
:100050000C9434010C9434010C9434010C9434014C
:100060000C9434010C943401B302CF02AA02CF02E3
:10007000CF02CF02CF02CF02CF02A30299028F029A
:100080009402BA02BF02C603BE03C603CC03010436
:100090000104C603BE03E403BE03BE03BE03AF03F5
:1000A000AF03AF0301040104010401040104BE0312
:1000B00094037E0301047403BE03000000080002E1
:1000C000010000030407000000000000000001021E
:1000D00004081020408001020408102001020408D6
:1000E00010200404040404040404020202020202B4
:1000F000030303030303000000002300260029007C
:1001000000000000250028002B0000000000240053
:1001100027002A000200407A10F35A00A0724E18FD
:10012000090010A5D4E80000E87648170000E40BA9
:1001300054020000CA9A3B000000E1F5050000806F
:10014000969800000040420F000000A086010000C9
:1001500000102700000000E8030000000064000019
:100160000000000A00000000000100000000002C58
:1001700076D888DC674F0823DFC1DFAE59E1B1B71D
:1001800096E5E3E453C63AE651997696E8E6C284EA
:1001900026EB898C9B62ED407C6FFCEFBC9C9F4002
:1001A000F2BAA56FA5F490055A2AF75C936B6CF927
:1001B000676DC11BFCE0E40D47FEF520E6B500D0FD
:1001C000ED902E0300943577050080841E08000012
:1001D000204E0A000000C80C333333330F986E12E0
:1001E000831141EF8D2114893BE65516CFFEE6DBE6
:1001F00018D1844B381BF77C1D901DA4BBE4242030
:100200003284725E228100C9F124ECA1E53D270011
:100210001504030A8211380411241FBECFEFD8E061
:10022000DEBFCDBF12E0A0E0B1E0E4EEFAE302C031
:1002300005900D92A83BB107D9F723E0A8EBB2E0F7
:1002400001C01D92A23FB207E1F712E0C6E1D2E081
:1002500004C02297FE010E947115C031D107C9F771
:100260000E94C6110C94651D0C940000AF92BF92C1
:10027000CF92DF92EF92FF920F931F93CF93DF9372
:10028000CDB7DEB7C054D1090FB6F894DEBF0FBEAC
:10029000CDBF6C0186EC92E00E94010D6AEF70E028
:1002A00080E090E00E94290EE12CF12CAA24A39476
:1002B000B12CEC14FD042CF500E010E0B501002E8B
:1002C00002C0660F771F0A94E2F740E250E0CE01C9
:1002D00001960E949017BE016F5F7F4F86EC92E0FF
:1002E0000E94A00C6BE470E080E090E00E94290E78
:1002F0000F5F1F4F0730110509F78FEFE81AF80A53
:10030000D8CF86EC92E00E94010DC05CDF4F0FB6A3
:10031000F894DEBF0FBECDBFDF91CF911F910F913B
:10032000FF90EF90DF90CF90BF90AF900895EF9245
:10033000FF920F93CF93DF937C0160E28EE193E015
:100340000E94E406C0E0D0E0CE15DF0554F400E0E2
:1003500020E040E8BE018EE193E00E942306219652
:10036000F3CF8EE193E0DF91CF910F91FF90EF906B
:100370000C94050582E090E00E9436018CE390E049
:100380000C94970161E082E00E94430F61E08AE0F3
:100390000E94430F61E08DE00E94430F61E08BE01B
:1003A0000E94430F61E084E00E94430F61E085E01A
:1003B0000E94430F61E086E00E94430F61E087E006
:1003C0000E94430F61E088EB92E00E947A0920E0EE
:1003D00030E040E052EC61E070E08BE393E00E949B
:1003E000520A64E070E086EC92E00E94490C8EE1D3
:1003F00093E00E948A040E94BA0140ED57E060E059
:1004000070E088EB92E00E94A60960E088EB92E041
:100410000C947A09009749F08130910579F488EBC2
:1004200092E00E94CF0961E005C088EB92E00E9453
:10043000CF0960E088EB92E00C947A092AE0289FCB
:10044000A001299F500D1124662757FD6095762F36
:1004500088EB92E00C94A609CF93DF93EB01FA01AD
:100460008631910569F19CF48431910519F1459724
:1004700009F041C060931C03D0931D034281618148
:1004800080810E94DB069B01AC01BE012EC0883139
:10049000910539F0499779F58EE193E00E94E406E1
:1004A00009C08EE193E00E94050560911C037091E4
:1004B0001D0301C0BE0183E393E00E94AC0D19C08F
:1004C00020911C0330911D032F5F3F4F30931D037C
:1004D00020931C03418160818C2F0E94DB069B01CD
:1004E000AC0160911C0370911D038EE193E00E94AA
:1004F000760681E001C080E0DF91CF9108950F93EF
:100500001F93CF93DF93162F072FEA018F309105AA
:1005100008F045C0FC01EC5CFF4F0C946F15862F72
:100520000E94B20FBC0121C06881812F0E94430F3D
:100530002CC0862F0E949E0E41E050E0892B81F452
:1005400040E050E00DC0862F972F0E940A02612FD5
:10055000702F0BC081E090E00E940A024BE050E057
:1005600060E070E016C061E070E083E393E00E9419
:10057000AC0D13C06881812F0E947C0F0EC02881B2
:10058000622F70E0812F0E94BB0E488150E0612FE6
:10059000702F83E393E00E947F0D81E001C080E033
:1005A000DF91CF911F910F9108950F931F93CF93D8
:1005B000DF9300D0CDB7DEB78B018630910501F116
:1005C00034F481309105B1F0039721F139C08730BF
:1005D000910539F00897A1F586EC92E00E94570C3E
:1005E00031C086EC92E00E94220C83E393E00E94EB
:1005F000A60D28C086EC92E00E941D0CB80105C033
:1006000086EC92E00E94180CBC0183E393E00E9408
:10061000AC0D18C086EC92E049835A830E94180CF6
:1006200023E0880F991F2A95E1F749815A8108171D
:10063000190741F4BA0186EC92E00E94A00C02C0B6
:1006400080E001C081E00F900F90DF91CF911F916A
:100650000F910895EF92FF920F931F93CF93DF9323
:10066000EC018B017A010E942C02811112C0A701BA
:10067000B801CE010E94D50281110BC0A701B801BB
:10068000CE01DF91CF911F910F91FF90EF900C94CD
:100690007F02DF91CF911F910F91FF90EF9008950E
:1006A000EF92FF920F931F93CF93DF93CDB7DEB7F7
:1006B000C054D1090FB6F894DEBF0FBECDBF83E39F
:1006C00093E00E943D0D892B09F49BC083E393E0E6
:1006D0000E94680D8C018A31910508F092C0FC01DE
:1006E000ED5BFF4F0C946F1583E393E00E94680D60
:1006F00040E050E0BC0188E190E081C083E393E0FA
:100700000E94680D8C0183E393E00E94680D898349
:1007100083E393E00E94680D8A83AE014F5F5F4FD1
:10072000B80186E190E06BC083E393E00E94680D1E
:100730008C0183E393E00E94680D898383E393E057
:100740000E94680D8A8383E393E00E94680D8B8387
:10075000AE014F5F5F4FB80185E190E050C083E389
:1007600093E00E94680D7C0183E393E00E94680D92
:100770008983AE014F5F5F4FB7010CC083E393E005
:100780000E94680D40E050E0BC0104C040E050E031
:1007900060E070E0C80133C086EC92E00E94180C63
:1007A000AC0133E0440F551F3A95E1F7BE016F5F8E
:1007B0007F4F83E393E00E94390DAE014F5F5F4F9F
:1007C000BC0183E090E01BC086EC92E00E94180C14
:1007D00083E393E00E94680D8C0186EC92E00E9416
:1007E000180CAC01BE016F5F7F4F83E393E00E9462
:1007F000390DAE014F5F5F4FB80188E090E00E9475
:100800002A03C05CDF4F0FB6F894DEBF0FBECDBF2A
:10081000DF91CF911F910F91FF90EF90089588EB9A
:1008200092E00E94D9090C94500361E083E393E0C5
:100830000E94220D22E546E06CE370E08EE193E039
:100840000E94FB0544E050E06AE070E088EC92E032
:100850000E94BA0B44E050E068EC72E086EC92E053
:100860000E94140C62E070E088EB92E00C94700936
:1008700088EB92E00E9479098EE193E00C94760473
:10088000CF93CFB7F89480913A03811127C0ECEE53
:10089000F0E08491E8EDF0E09491E82FF0E0EE0FC5
:1008A000FF1FE65FFE4FA591B4918C91892321F43F
:1008B00061E08AE00E947C0F61E08AE00E94430FC1
:1008C0008CB580618CBD8CB580648CBD61E08DE0A1
:1008D0000E94430F61E08BE00E94430F80913A0336
:1008E0008F5F80933A03CFBFCF910895CF93DF936B
:1008F000EC0188859985009711F00E942E168E8153
:1009000087FD05C060E0DF91CF910C94430FDF912C
:10091000CF910895CF93DF93EC018E8187FD07C0BF
:1009200061E00E94430F60E08E810E947C0F81E0B5
:100930008B83DF91CF910895EF92FF920F931F93D6
:10094000CF93DF93EC017B0188859985009711F0A7
:100950000E942E169D858A85981303C083E090E03F
:1009600002C084E090E08E9D80018F9D100D9E9DC1
:10097000100D11241D830C83C8010E9496159987C0
:100980008887009741F0A80160E070E00E9490170E
:10099000F982E88204C01D821C8219821882DF91CC
:1009A000CF911F910F91FF90EF900895FC0141E0CE
:1009B00095858285981340E0562F52955695569509
:1009C00053705587862F90E09C0174E035952795EC
:1009D0007A95E1F723702287959587959595879568
:1009E000837083876370648781E0828380859185CB
:1009F000892B51F081E0521380E0841729F0608147
:100A00007181CF010C949C040895CF92DF92EF92F4
:100A1000FF920F931F93CF93DF93CDB7DEB7299744
:100A20000FB6F894DEBF0FBECDBF8C01DC01189667
:100A30008D919C911997892B09F49CC00E94060EF8
:100A4000F801C684D784E088F1886C197D098E0985
:100A50009F09623371058105910580F3F8948481C3
:100A600095819A838983A085B1857D01EFEFEE1A88
:100A7000FE0A8C918987D80112969C911297529602
:100A80000D90BC91A02DF8018489992309F42EC002
:100A90009C91982B98879C91809589238F838F8137
:100AA0008E8388E08D8358856F8149853D812E81B5
:100AB00089819A81F7015C9347FD252F3A952C9304
:100AC000262F39F0441F00C000006C93000000C0C6
:100AD000F2CF38E041916C930000019761F7F80183
:100AE000B38BA28B49873D832E8338C09C91982B72
:100AF00098879C91809589238F838F818C8388E050
:100B00008B8358856F8149853B812C8189819A81AE
:100B1000F7015C9347FD252F00C000C02C9300C057
:100B200000C000C000C000C06C930000262F3A95A2
:100B300041F0441F000000C000C000C000C000C061
:100B4000E8CF38E0419100C06C9300C0019709F7ED
:100B5000F801B38BA28B49873B832C839A838983CB
:100B600078940E94060ED8011E966D937D938D9306
:100B70009C93519729960FB6F894DEBF0FBECDBF58
:100B8000DF91CF911F910F91FF90EF90DF90CF9069
:100B900008951F93CF93DF93EC01162F8B81882349
:100BA00031F08E8187FD03C060E00E94430F1E83F9
:100BB0008B81882341F061E0812F0E94430F60E028
:100BC000812F0E947C0F812F90E0FC01EE51FF4F9E
:100BD000E491F0E0EE0FFF1FE050FF4F25913491BC
:100BE0003B8B2A8BFC01E253FF4F84918C8BDF916E
:100BF000CF911F910895EF92FF920F931F93CF9380
:100C0000DF931F92CDB7DEB77C018B01FC0113820D
:100C100017821186108616861786108A118A622F0F
:100C200049830E94D604B801C7010E949C044981EF
:100C3000642FC7010F90DF91CF911F910F91FF900B
:100C4000EF900C94C9050F931F93CF93DF93DC01B2
:100C50008D919C9111976817790708F042C01796FB
:100C60008C911797882361F0489FA0011124452F8C
:100C7000289F90011124232F089F80011124012F08
:100C80001D963C911D971A965C911A9718968D9116
:100C90009C911997FB01351307C0EE0FFF1FE60F5C
:100CA000F71FE80FF91F0AC0EE0FFF1FEE0FFF1F1F
:100CB000E80FF91FEF01C30FD11D18821A968C910E
:100CC0001A97EF01C80FD11D48831B968C911B9773
:100CD000EF01C80FD11D28831C968C91E80FF11DE0
:100CE0000083DF91CF911F910F910895CF92DF92F2
:100CF000EF92FF920F931F93CF93DF93FC018081BC
:100D000091816817790708F04DC0CA01AA27BB274F
:100D1000182FC32ED42EE52EFF24DC2DC22F0781E1
:100D2000002361F0809FC0011124192FC09E600133
:100D30001124DD2D209FC0011124C92FF584828547
:100D4000A085B185F81208C0CB01880F991F860FC6
:100D5000971F8A0F9B1F17C0CB01880F991F880F01
:100D6000991F8A0F9B1F452F552766277727DC0180
:100D7000AF0DB11D002329F0409F90011124232FB6
:100D800001C0242F2C932285DC01A20FB11D1C93DE
:100D90002385DC01A20FB11DDC932485FC01E20F49
:100DA000F11DC083DF91CF911F910F91FF90EF90C4
:100DB000DF90CF900895962F50E060E070E0592BBF
:100DC000682BCB01BA010895FF920F931F93CF9325
:100DD000DF93EC01FF24F394F60E2F81F21679F1E4
:100DE000088519852150B9F06F3F59F430E040E093
:100DF00050E06FEF7FEF80E090E00E945015B90166
:100E00000CC08F2D90E0982F88270197622F70E0FB
:100E10000E941A1502C060E070E0F8018C819D818B
:100E2000AF01401B510B4817590740F44081469FC2
:100E3000C001479F900D11249193F0CFFF82DF9165
:100E4000CF911F910F91FF900895EF92FF920F9312
:100E50001F93CF93DF93EC017A01890168EA72E076
:100E60000E94AE138C819D818017910728F4B701F1
:100E7000CE010E940915F6CFCE01DF91CF911F91CF
:100E80000F91FF90EF900895CF92DF92EF92FF9233
:100E90000F931F93CF93DF9300D000D000D0CDB736
:100EA000DEB77C016A01A901F60184819581081BE6
:100EB000190B101611062CF0B601C7010E941B1366
:100EC00014C09801CE0101960E942507B601CE01FB
:100ED00001960E940215BE016F5F7F4FC7010E94FD
:100EE0001B13CE0101960E944013C70126960FB630
:100EF000F894DEBF0FBECDBFDF91CF911F910F9150
:100F0000FF90EF90DF90CF9008952F923F924F92F5
:100F10005F926F927F928F929F92AF92BF92CF9289
:100F2000DF92EF92FF920F931F93CF93DF93CDB792
:100F3000DEB76C970FB6F894DEBF0FBECDBFC9A861
:100F4000DAA8ADA8BEA868EA72E0C6010E94AE1396
:100F50007E0187E3E80EF11CFE0131964F0183E12B
:100F6000282E81E0382E90E1492E91E0592EF5018E
:100F70006081662309F416C1653209F001C1C5011B
:100F8000019600E010E05C01FC012081019630ED4B
:100F9000320F3A3038F4022F112707FD1095005315
:100FA0001109F1CF3501253231F46CE071E0C60151
:100FB0000E940915F3C0233739F487010E5F1F4FD4
:100FC000F70160817181D7C0233651F487010E5F2C
:100FD0001F4FF7016081CE0141960E94DC13ACC027
:100FE000243639F53701F2E06F0E711CF70160818C
:100FF00071814AE0CE0147960E94F4132EE031E061
:10100000AE01495E5F4F60E473E0CE0141960E94FD
:101010004407BE016F5E7F4FC6010E940215CE01DC
:1010200041960E944013CE0147960E9440137301DF
:10103000B5C02C3671F487010C5F1F4FF70140815A
:101040005181628173812AE0CE0141960E944C1445
:1010500073C0253769F55C0181818936B1F4870158
:101060000E5F1F4FF701608171814AE0CE0141960A
:101070000E942014BE016F5E7F4FC6010E940215C0
:10108000CE0141960E9440137801F30181818C3694
:1010900009F084C087010C5F1F4FF7014081518127
:1010A000628173812AE0CE0141960E94791444C086
:1010B000283759F487010E5F1F4FF70181818F9305
:1010C00080818F935F924F920CC0283531F5870154
:1010D0000E5F1F4FF70181818F9380818F933F9225
:1010E0002F921F92F0E1FF939F928F920E942018FF
:1010F000B401CE0141960E94AE13BE016F5E7F4FD8
:10110000C6010E940215CE0141960E9440130FB6FF
:10111000F894DEBF0FBECDBF19C02636C9F48701D3
:101120000C5F1F4FF701408151816281738122E082
:10113000CE0141960E94A614BE016F5E7F4FC6018C
:101140000E940215CE0141960E944013780126C0EC
:10115000223621F587010E5F1F4FF70180819181B3
:10116000892B19F066E171E002C06BE171E0C40106
:101170000E949717B401CE0141960E94AE13DCCFB6
:10118000CE0141960E94DC13BE016F5E7F4FC60107
:101190000E940215CE0141960E944013FFEFAF1A44
:1011A000BF0AE5CEC6016C960FB6F894DEBF0FBE3F
:1011B000CDBFDF91CF911F910F91FF90EF90DF9006
:1011C000CF90BF90AF909F908F907F906F905F90E7
:1011D0004F903F902F9008958F929F92AF92BF9221
:1011E000CF92DF92EF92FF920F931F93CF93DF93F3
:1011F000D82FC92F162F072F0E94FA0D28EE33E0A3
:1012000040E050E00E942E1549015A01CA01B9017F
:1012100020E13EE040E050E00E942E1569017A0195
:1012200020E13EE02C9DC0012D9D900D3C9D900D38
:101230001124AA2797FDA095BA2F881A990AAA0AFD
:10124000BB0AC501B4012CE330E040E050E00E944D
:101250002E158CE3829FF001839FF00D1124CF01A6
:10126000AA2797FDA095BA2F881A990AAA0ABB0A3D
:101270009F928F923F932F93DF92CF9281E291E0E2
:101280009F938F930F931F93CF93DF930E948507B4
:101290008DB79EB70C960FB6F8949EBF0FBE8DBF4C
:1012A0008D2F9C2FDF91CF911F910F91FF90EF9089
:1012B000DF90CF90BF90AF909F908F900895CF9385
:1012C000DF93EC010E94FA0D69837A838B839C8300
:1012D0001882DF91CF910895862F642F0C947C0F94
:1012E000FC0171836083168212821382148215823C
:1012F000089508951F93CF93DF93EC01162F688113
:101300007981412F8BE393E00E946C091E83DF916A
:10131000CF911F9108950F931F93CF93DF93EC010B
:101320008B018F8198856817790759F088810E9411
:10133000BB0E81E0101611060CF080E08E8318873A
:101340000F83DF91CF911F910F910895CF93DF937A
:10135000EC014A835B836C837D830E94FA0D69876D
:101360007A878B879C8781E08E8361E0CE01DF9155
:10137000CF910C947A090F931F93CF93DF93EC01D5
:101380000E94FA0D09851A852B853C85601B710B1F
:10139000820B930BDF91CF911F910F910895FC0168
:1013A0001282138214821582168260E070E00C941F
:1013B0008B090F931F93CF93DF93EC014A815B81DD
:1013C0006C817D81452B462B472BC1F00E94BB09C8
:1013D0000A811B812C813D810617170728073907D1
:1013E00068F46E8181E068276E83CE010E947A09DD
:1013F0000E94FA0D69877A878B879C87DF91CF914E
:101400001F910F9108958BE393E00C945F090F9364
:101410001F93CF93DF9300D000D000D0CDB7DEB7BD
:101420008B01FC018081882391F1442309F16FE253
:1014300072E08AE493E00E94211260E473E0CE013E
:1014400001960E94EC08BE016F5F7F4F8AE493E033
:101450000E941312CE0101960E94401361E372E0D4
:101460008AE493E00E9421128AE493E00E943710FC
:10147000B8018AE493E00E9427128AE493E00E9474
:1014800037106FE070E080E090E00E94290E269611
:101490000FB6F894DEBF0FBECDBFDF91CF911F9185
:1014A0000F9108950F931F93CF93DF93EC01890160
:1014B00026E08AE493E00E94BE1081E08883011553
:1014C000110549F041E0B801CE01DF91CF911F91A4
:1014D0000F910C94070ADF91CF911F910F910895FE
:1014E000FC0182899389089560E0FC0180890C9455
:1014F0007C0F61E0FC0180890C947C0FEF92FF92DD
:101500000F931F93CF93DF93EC018B017A010E941D
:10151000740A80913903882399F09FB7F8948091D9
:101520003903813059F48DB3809337032DB3809103
:101530003803809582238DBB9FBF02C090933703F1
:1015400080E58CBD81E08DBDF801CF01801B910B42
:101550008E159F0544F481918EBD00000DB407FEE9
:10156000FDCF8EB5F2CF80913903882361F09FB70C
:10157000F8942091390380913703213019F48DBB01
:101580009FBF01C08FBFCE01DF91CF911F910F91FF
:10159000FF90EF900C94790ACF93DF93CDB7DEB72D
:1015A000C254D1090FB6F894DEBF0FBECDBF22964C
:1015B0004FAF229723962FAF2397660F771FFC011B
:1015C00042895389440F551F9F01281B390B24174B
:1015D000350714F41192F8CF22962FAD2297FC0113
:1015E000E60FF71F218323962FAD23972083FE015B
:1015F00031969A01BF011216130644F421503109A5
:10160000DC01A20FB31FAC91A193F5CF0E947E0A1B
:10161000CE5BDF4F0FB6F894DEBF0FBECDBFDF91BC
:10162000CF91089577FD0EC0FC012289338962179E
:10163000730744F4442311F020E001C021E04CE0A2
:101640000C94CC0A089577FD0DC0FC0122893389E2
:10165000621773073CF44830510520F4242F4BE007
:101660000C94CC0A089577FD0DC0FC0122893389C2
:10167000621773073CF44031510520F4242F4AE0EF
:101680000C94CC0A0895CF92DF92EF92FF920F93C1
:101690001F93CF93DF937C018B0177FD1FC0FC016B
:1016A0008289938968177907CCF46B0143E0CC0CED
:1016B000DD1C4A95E1F7C0E0D0E0CE0CDF1CF6015E
:1016C000EC0FFD1F148A4C2F4F5F20E0B801C701BB
:1016D0000E94CC0A2196C830D10589F7DF91CF91BD
:1016E0001F910F91FF90EF90DF90CF9008950F938F
:1016F0001F93CF93DF938C01CB010197089710F0D4
:1017000068E070E0F801738B628BC0E0D0E0F80114
:1017100082899389C817D90744F520E04FE0BE01BC
:10172000C8010E94CC0A47E050E0BE01C8010E94F7
:10173000230B20E049E0BE01C8010E94CC0A41E031
:10174000BE01C8010E94120B40E050E0BE01C8017A
:101750000E94330BBE01C8010E94430B40E0BE0152
:10176000C8010E94120B2196D2CFDF91CF911F9119
:101770000F9108950F931F93CF93DF93EC01862F62
:101780008A01688B798B61E00E94430F61E08DE0F4
:101790000E94430F61E08BE00E94430FCE010E9444
:1017A000740A8CB58F7D8CBD8CB5837F8CBD0E94F7
:1017B000400480E090E0FE01E80FF91F148A0196D2
:1017C00080349105C1F7B801CE01DF91CF911F910F
:1017D0000F910C94770B0F931F93CF93DF93CDB79B
:1017E000DEB760970FB6F894DEBF0FBECDBF9B018A
:1017F000DB01A40FB51FFE013196BF018D01021B55
:10180000130B101611061CF41E911193F7CF0E94B2
:101810007E0A60960FB6F894DEBF0FBECDBFDF9193
:10182000CF911F910F910895FC01718360830895FA
:10183000FC01808191810C94700AFC01808191816E
:101840000C94770BCF92DF92EF92FF920F931F933E
:10185000CF93DF938C017B01FC01808191810E94F9
:10186000700A6C01C0E0D0E0CC15DD054CF4A70196
:10187000BE01F801808191810E94330B2196F4CF43
:10188000DF91CF911F910F91FF90EF90DF90CF905C
:101890000895CF93DF93EC01888199810E94770BA3
:1018A00060E070E0CE01DF91CF910C94220CCF92DA
:1018B000DF92EF92FF920F931F93CF93DF93CDB7F9
:1018C000DEB761970FB6F894DEBF0FBECDBF8C01B7
:1018D0007A01698B0E94180CFE01329667016989B2
:1018E0006F5F96012E193F09281739075CF4D6015E
:1018F0004D916D019F0121503109D9014C936083B5
:101900003296EFCFAC0197FF02C040E050E0440FA9
:10191000551FBE016F5F7F4FF801808191810E944A
:10192000EB0B61960FB6F894DEBF0FBECDBFDF9113
:10193000CF911F910F91FF90EF90DF90CF9008957E
:101940006F927F928F929F92AF92BF92CF92DF92CF
:10195000EF92FF920F931F93CF93DF93CDB7DEB734
:1019600061970FB6F894DEBF0FBECDBF5C014B018F
:101970000E94180C6C017C0197FF02C0E12CF12C35
:101980003701660C771C21E000E010E0B401600F25
:10199000711FDE011296AB01CB01841B950B8C15D8
:1019A0009D0554F4FB013191BF01CD010197FC016C
:1019B00030832C931296F0CF0E0D1F1DA301BE0194
:1019C0006F5F7F4FF50180819181298B0E94EB0B26
:1019D00029892F5F2930D1F661960FB6F894DEBFC2
:1019E0000FBECDBFDF91CF911F910F91FF90EF9070
:1019F000DF90CF90BF90AF909F908F907F906F902F
:101A00000895EF92FF920F931F93CF93DF938C0172
:101A1000FC01808191810E94700A7C01C0E0D0E0CD
:101A2000CE15DF0544F4BE01F801808191810E944A
:101A3000430B2196F5CFDF91CF911F910F91FF902E
:101A4000EF900895FC011182108213821282089592
:101A5000FC0122813381808191812817390734F478
:101A6000181619061CF4821B930B089580E090E071
:101A700008958AE493E00C9467120E94280D009761
:101A800021F48AE493E00C94DB0F0895EF92FF9227
:101A90000F931F93CF93DF937C018B01C4E0D0E0C1
:101AA000C7010E943D0D8017910754F461E070E07A
:101AB00080E090E00E94290E219791F780E001C01C
:101AC00081E0DF91CF911F910F91FF90EF900895EA
:101AD00061E070E00E94460D882321F08AE493E0E3
:101AE0000C94F40F8FEF9FEF08958AE493E00E9427
:101AF000591021E0892B09F420E0822F0895EF92FC
:101B0000FF920F931F93CF93DF93EC018B017A0128
:101B10006F3F8FEF780711F400E010E08FEFE816C9
:101B2000F80611F4E12CF12C60E8CE010E94750D4D
:101B3000602FCE010E94750D6E2DCE01DF91CF91E9
:101B40001F910F91FF90EF900C94750D4FEF5FEF89
:101B50006FEF7FEF0C947F0D4FEF5FEF0C947F0DD5
:101B60001F920F920FB60F9211242F933F938F93D2
:101B70009F93AF93BF938091420390914303A091B1
:101B80004403B09145033091410323E0230F2D37E7
:101B900020F40196A11DB11D05C026E8230F029671
:101BA000A11DB11D209341038093420390934303F1
:101BB000A0934403B093450380914603909147035B
:101BC000A0914803B09149030196A11DB11D8093D6
:101BD000460390934703A0934803B0934903BF91F2
:101BE000AF919F918F913F912F910F900FBE0F90CA
:101BF0001F9018952FB7F89460914203709143039A
:101C000080914403909145032FBF08953FB7F89406
:101C10008091460390914703A0914803B0914903F6
:101C200026B5A89B05C02F3F19F00196A11DB11D37
:101C30003FBF6627782F892F9A2F620F711D811D54
:101C4000911D42E0660F771F881F991F4A95D1F7B3
:101C500008958F929F92AF92BF92CF92DF92EF92B0
:101C6000FF926B017C010E94060E4B015C01C114C6
:101C7000D104E104F104F1F00E9419150E94060E4E
:101C8000681979098A099B09683E734081059105A5
:101C900070F321E0C21AD108E108F10888EE880E3D
:101CA00083E0981EA11CB11CC114D104E104F1040D
:101CB00029F7DDCFFF90EF90DF90CF90BF90AF90EE
:101CC0009F908F900895789484B5826084BD84B588
:101CD000816084BD85B5826085BD85B5816085BD27
:101CE000EEE6F0E0808181608083E1E8F0E0108240
:101CF000808182608083808181608083E0E8F0E081
:101D0000808181608083E1EBF0E08081846080836A
:101D1000E0EBF0E0808181608083EAE7F0E08081A1
:101D20008460808380818260808380818160808301
:101D30008081806880831092C10008958E3008F001
:101D40008E50877020910A0190E4299F9001112400
:101D5000822B80937C0080917A00806480937A004B
:101D600080917A0086FDFCCF8091780020917900E7
:101D700090E0922B08951F93CF93DF93182FEB01E0
:101D800061E00E94430F209711F460E004C0CF3F50
:101D9000D10539F461E0812FDF91CF911F910C942F
:101DA0007C0FE12FF0E0E654FF4FE491E330F9F0CF
:101DB00048F4E130B9F0E230A1F584B5806284BD29
:101DC000C8BD34C0E730E9F0E83019F1E43049F536
:101DD00080918000806280938000D0938B00C093BC
:101DE0008A0024C084B5806884BDC7BD1FC08091AF
:101DF0008000806880938000D0938900C093880021
:101E000015C08091B00080688093B000C093B3008B
:101E10000DC08091B00080628093B000C093B40088
:101E200005C0C038D1050CF0B5CFAFCFDF91CF9151
:101E30001F910895833081F028F4813099F0823029
:101E4000A1F008958730A9F08830B9F08430D1F43A
:101E5000809180008F7D03C0809180008F77809378
:101E60008000089584B58F7702C084B58F7D84BDCE
:101E700008958091B0008F7703C08091B0008F7D6E
:101E80008093B0000895CF93DF9390E0FC01E2537C
:101E9000FF4F2491FC01EE51FF4F8491882349F1BB
:101EA00090E0880F991FFC01E65FFE4FA591B49169
:101EB00080509F4FFC01C591D4919FB7611108C01C
:101EC000F8948C91209582238C93888182230AC078
:101ED000623051F4F8948C91322F309583238C9397
:101EE0008881822B888304C0F8948C91822B8C93F8
:101EF0009FBFDF91CF9108950F931F93CF93DF93EF
:101F00001F92CDB7DEB7282F30E0F901E654FF4F1E
:101F10008491F901E253FF4F1491F901EE51FF4F03
:101F200004910023C9F0882321F069830E941A0FCD
:101F30006981E02FF0E0EE0FFF1FE050FF4FA59109
:101F4000B4919FB7F8948C91611103C010958123CF
:101F500001C0812B8C939FBF0F90DF91CF911F9178
:101F60000F910895CF93DF93282F30E0F901E654C5
:101F7000FF4F8491F901E253FF4FD491F901EE51E3
:101F8000FF4FC491CC2391F081110E941A0FEC2FC6
:101F9000F0E0EE0FFF1FEA50FF4FA591B4912C9196
:101FA0002D2381E090E021F480E002C080E090E009
:101FB000DF91CF910895FC01818D228D90E0805CAE
:101FC0009F4F821B91098F7399270895FC01918D72
:101FD000828D981731F0828DE80FF11D858D90E08C
:101FE00008958FEF9FEF0895FC01918D828D9817D2
:101FF00061F0828DDF01A80FB11D5D968C91928DED
:102000009F5F9F73928F90E008958FEF9FEF0895E9
:1020100088E791E1892B49F080E090E0892B29F055
:102020000E94781181110C9400000895FC01848DA8
:10203000DF01A80FB11DA35ABF4F2C91848D90E0F2
:1020400001968F739927848FA689B7892C93A089CD
:10205000B1898C9180648C93938D848D981306C084
:102060000288F389E02D80818F7D80830895CF934E
:10207000DF93EC01888D8823C9F0EA89FB89808190
:1020800085FD05C0A889B9898C9186FD0FC00FB662
:1020900007FCF5CF808185FFF2CFA889B9898C91A3
:1020A00085FFEDCFCE010E941610E7CFDF91CF91D3
:1020B0000895CF92DF92FF920F931F93CF93DF93F8
:1020C0001F92CDB7DEB76C0181E0D60158968C9394
:1020D00058975B969C915B975C968C915C97981354
:1020E00007C05096ED91FC915197808185FD2EC0DF
:1020F000F601038D10E00F5F1F4F0F731127F02EB5
:10210000F601848DF81211C00FB607FCF9CFD60185
:102110005096ED91FC915197808185FFF1CFC601DA
:1021200069830E9416106981EBCF838DE80FF11D42
:10213000E35AFF4F6083D6015B960C935B975296F0
:10214000ED91FC915397808180620CC0D601569628
:10215000ED91FC91579760835096ED91FC915197CA
:1021600080818064808381E090E00F90DF91CF9147
:102170001F910F91FF90DF90CF900895BF92CF9263
:10218000DF92EF92FF92CF93DF93EC016A017B0124
:10219000B22EE889F98982E08083411581EE5807E3
:1021A00061057105A1F060E079E08DE390E0A701A1
:1021B00096010E942E152150310941095109569569
:1021C000479537952795211580E1380798F0E889DC
:1021D000F989108260E874E88EE190E0A701960129
:1021E0000E942E15215031094109510956954795F4
:1021F00037952795EC85FD853083EE85FF85208317
:10220000188EEC89FD89B082EA89FB898081806122
:102210008083EA89FB89808188608083EA89FB89E1
:10222000808180688083EA89FB8980818F7D8083BB
:10223000DF91CF91FF90EF90DF90CF90BF90089506
:102240001F920F920FB60F9211242F938F939F938B
:10225000EF93FF93E0915A03F0915B038081E0914B
:102260006003F091610382FD12C09081809163034D
:102270008F5F8F7320916403821751F0E0916303A5
:10228000F0E0E65BFC4F958F8093630301C0808193
:10229000FF91EF919F918F912F910F900FBE0F9013
:1022A0001F9018951F920F920FB60F9211242F9323
:1022B0003F934F935F936F937F938F939F93AF93CE
:1022C000BF93EF93FF938AE493E00E941610FF916F
:1022D000EF91BF91AF919F918F917F916F915F919E
:1022E0004F913F912F910F900FBE0F901F90189517
:1022F0008AE493E00E94DB0F21E0892B09F420E0BF
:10230000822F089510924D0310924C0388EE93E0B3
:10231000A0E0B0E080934E0390934F03A09350034E
:10232000B09351038AE992E090934B0380934A0360
:1023300085EC90E0909357038093560384EC90E0F3
:10234000909359038093580380EC90E090935B0343
:1023500080935A0381EC90E090935D0380935C033B
:1023600082EC90E090935F0380935E0386EC90E0B4
:10237000909361038093600310926303109264034F
:102380001092650310926603089508950E94630EEB
:102390000E94C5110E94C201C8E0D0E10E940F0452
:1023A0002097E1F30E940810F9CFCF92DF92EF92CD
:1023B000FF920F931F93CF93DF937C016A01EB0190
:1023C00000E010E00C151D0571F06991D701ED9149
:1023D000FC910190F081E02DC7010995892B19F03E
:1023E0000F5F1F4FEFCFC801DF91CF911F910F916A
:1023F000FF90EF90DF90CF9008956115710581F007
:10240000DB010D900020E9F7AD0141505109461B59
:10241000570BDC01ED91FC910280F381E02D0994D2
:1024200080E090E00895DC01ED91FC91DB011496D1
:102430004D915C9115976D917C910280F381E02D17
:1024400009940C94FD1166EA72E00C94FD110F934F
:102450001F93CF93DF93EC010E94FD118C01CE01FD
:102460000E942312800F911FDF91CF911F910F9136
:1024700008950F931F93CF93DF93EC010E94FA0D01
:10248000688779878A879B87E881F9810680F78149
:10249000E02DCE01099597FF15C00E94FA0D088521
:1024A00019852A853B85601B710B820B930B0C8170
:1024B0001D812E813F81601771078207930720F3EA
:1024C0008FEF9FEFDF91CF911F910F910895CF92E2
:1024D000DF92EF92FF920F931F93CF93DF937C01D4
:1024E0006A01EB0100E010E00C151D0549F0C70181
:1024F0000E94391297FD04C089930F5F1F4FF4CFDC
:10250000C801DF91CF911F910F91FF90EF90DF9065
:10251000CF900895813039F018F0823051F008954D
:1025200010926E00089580916F008D7F80936F00F0
:102530000895809170008D7F8093700081E080937A
:10254000B0008091B100887F84608093B1001092C8
:10255000B3000895CF93C82F80910B018C1307C04F
:10256000E4E1F1E084919FEF90930B0101C08FEFC4
:102570000E948A1260E08C2FCF910C947C0F1F92E6
:102580000F920FB60F9211242F933F934F935F93A7
:102590006F937F938F939F93AF93BF93EF93FF932B
:1025A0008091EA039091EB03A091EC03B091ED03CD
:1025B000892B8A2B8B2B51F19091E703E091E80353
:1025C000F091E9038081892780838091EA039091CB
:1025D000EB03A091EC03B091ED03181619061A064F
:1025E0001B06C4F48091EA039091EB03A091EC03E5
:1025F000B091ED030197A109B1098093EA0390938B
:10260000EB03A093EC03B093ED0304C080910B01A6
:102610000E94AA12FF91EF91BF91AF919F918F916C
:102620007F916F915F914F913F912F910F900FBECE
:102630000F901F901895FC01DB011182108213820C
:102640001282158214828D919C91119791838083BF
:1026500012968D919C9113979383828314968D91FA
:102660009C9115979583848311961C921E921396C4
:102670001C921E92129715961C921E921497089502
:10268000FC01808191810C942E16CF93DF93EC0195
:1026900088819981009711F00E942E161982188264
:1026A0001D821C821B821A82DF91CF9108950F93A5
:1026B0001F93CF93DF93EC018B016F5F7F4F888176
:1026C00099810E94BD16009731F0998388831B83FE
:1026D0000A8381E001C080E0DF91CF911F910F91CB
:1026E0000895CF93DF93EC0188819981892B29F09C
:1026F0008A819B818617970760F4CE010E94571349
:10270000882341F08C819D81892B19F4E881F9811E
:10271000108281E0DF91CF910895EF92FF920F93A5
:102720001F93CF93DF93EC017B018A01BA010E94D2
:102730007113811104C0CE010E94451307C01D838F
:102740000C83B701888199810E949717CE01DF9190
:10275000CF911F910F91FF90EF900895FC0111828E
:10276000108213821282158214826115710559F04C
:10277000FB0101900020E9F7AF0141505109461BD0
:10278000570B0C948D130895CF93DF93EC016115D3
:10279000710561F0FB0101900020E9F7AF014150A4
:1027A0005109461B570B0E948D1302C00E9445130E
:1027B000CE01DF91CF910895CF93DF9300D0CDB7B5
:1027C000DEB7FC01118210821382128215821482FC
:1027D00069831A82BE016F5F7F4F0E94C4130F90FE
:1027E0000F90DF91CF9108950F931F93CF93DF93B5
:1027F000CDB7DEB762970FB6F894DEBF0FBECDBF80
:102800008C01CB01F8011182108213821282158291
:10281000148250E0BE016F5F7F4F0E949E17BE0181
:102820006F5F7F4FC8010E94C41362960FB6F89481
:10283000DEBF0FBECDBFDF91CF911F910F910895E5
:102840000F931F93CF93DF93CDB7DEB761970FB68A
:10285000F894DEBF0FBECDBF8C01CB01F801118211
:102860001082138212821582148250E0BE016F5FC3
:102870007F4F0E94FB17BE016F5F7F4FC8010E9410
:10288000C41361960FB6F894DEBF0FBECDBFDF91C3
:10289000CF911F910F9108950F931F93CF93DF93C3
:1028A000CDB7DEB7A2970FB6F894DEBF0FBECDBF8F
:1028B0008C01CB01BA01F8011182108213821282BD
:1028C0001582148230E0AE014F5F5F4F0E94B41753
:1028D000BE016F5F7F4FC8010E94C413A2960FB65E
:1028E000F894DEBF0FBECDBFDF91CF911F910F9146
:1028F00008950F931F93CF93DF93CDB7DEB7A197C2
:102900000FB6F894DEBF0FBECDBF8C01CB01BA016C
:10291000F80111821082138212821582148230E033
:10292000AE014F5F5F4F0E94CE17BE016F5F7F4FBA
:10293000C8010E94C413A1960FB6F894DEBF0FBE63
:10294000CDBFDF91CF911F910F910895EF92FF922C
:102950000F931F93CF93DF93CDB7DEB7A1970FB639
:10296000F894DEBF0FBECDBF7C01CB01BA01F701E9
:1029700011821082138212821582148242E0420F69
:102980008E010F5F1F4F0E947515BC01C7010E9489
:10299000C413A1960FB6F894DEBF0FBECDBFDF9172
:1029A000CF911F910F91FF90EF900895EF92FF92BA
:1029B0000F931F93CF93DF93EC017B010C811D815B
:1029C0006115710511F480E016C04115510591F0B3
:1029D000040F151FB8010E9471138823A1F32881E9
:1029E00039818C819D81B701820F931F0E949717B7
:1029F0001D830C8381E0DF91CF911F910F91FF9098
:102A0000EF900895FB0144815581608171810C94A0
:102A1000D6146115710559F0FB0101900020E9F70A
:102A2000AF0141505109461B570B0C94D61480E05E
:102A300008950895AA1BBB1B51E107C0AA1FBB1F25
:102A4000A617B70710F0A61BB70B881F991F5A953A
:102A5000A9F780959095BC01CD010895A1E21A2EA9
:102A6000AA1BBB1BFD010DC0AA1FBB1FEE1FFF1F32
:102A7000A217B307E407F50720F0A21BB30BE40B82
:102A8000F50B661F771F881F991F1A9469F76095C9
:102A90007095809590959B01AC01BD01CF01089583
:102AA000052E97FB1EF400940E94671557FD07D072
:102AB0000E942E1507FC03D04EF40C946715509518
:102AC0004095309521953F4F4F4F5F4F089590951A
:102AD0008095709561957F4F8F4F9F4F0895EE0FB2
:102AE000FF1F0590F491E02D0994EF920F931F932F
:102AF000CF93DF93E80147FF02C034E101C034E027
:102B0000E42FFF27E7FDF095F7FF03C0F195E1956E
:102B1000F109E32E022F2E2FAE010E94221ACE01C0
:102B2000DF91CF911F910F91EF900895CF93DF9395
:102B30008230910510F482E090E0E091F003F09192
:102B4000F10320E030E0A0E0B0E0309739F14081BF
:102B5000518148175907B8F04817590771F4828115
:102B60009381109729F013969C938E9312972CC003
:102B70009093F1038093F00327C02115310531F0C4
:102B80004217530718F0A901DB0101C0EF019A01B8
:102B9000BD01DF010280F381E02DD7CF2115310582
:102BA000F9F0281B390B2430310580F48A819B8190
:102BB0006115710521F0FB019383828304C090931A
:102BC000F1038093F003FE01329644C0FE01E20F50
:102BD000F31F8193919322503109398328833AC09E
:102BE0002091EE033091EF03232B41F42091020159
:102BF000309103013093EF032093EE032091000105
:102C0000309101012115310541F42DB73EB74091B6
:102C1000040150910501241B350BE091EE03F09166
:102C2000EF03E217F307A0F42E1B3F0B2817390719
:102C300078F0AC014E5F5F4F2417350748F04E0F18
:102C40005F1F5093EF034093EE038193919302C073
:102C5000E0E0F0E0CF01DF91CF910895CF93DF93D3
:102C6000009709F487C0FC01329713821282C09149
:102C7000F003D091F103209781F420813181280F56
:102C8000391F8091EE039091EF038217930779F536
:102C9000F093EF03E093EE036DC0DE0120E030E03F
:102CA000AE17BF0750F412964D915C9113979D019A
:102CB0004115510509F1DA01F3CFB383A2834081B5
:102CC0005181840F951F8A179B0771F48D919C91F8
:102CD0001197840F951F02969183808312968D9190
:102CE0009C911397938382832115310529F4F093E6
:102CF000F103E093F0033EC0D9011396FC93EE93E9
:102D000012974D915D91A40FB51FEA17FB0779F457
:102D100080819181840F951F0296D90111969C9311
:102D20008E938281938113969C938E931297E0E009
:102D3000F0E08A819B81009719F0FE01EC01F9CF48
:102D4000CE01029628813981820F931F2091EE03D4
:102D50003091EF032817390769F4309729F410925E
:102D6000F1031092F00302C013821282D093EF039A
:102D7000C093EE03DF91CF910895A0E0B0E0E3ECC3
:102D8000F6E10C94321DEC01CB01209719F40E945E
:102D90009615B8C0FE01E60FF71F9E0122503109BB
:102DA000E217F30708F4ACC0D9010D911C911197FB
:102DB00006171707B8F00530110508F49FC0A801E1
:102DC000445051094617570708F498C0025011099A
:102DD000061B170B019311936D937C93CF010E94F7
:102DE0002E168CC05B01A01AB10A4E01800E911EF6
:102DF000A091F003B091F103612C712C60E070E0C0
:102E0000109709F449C0A815B905C9F5ED90FC90D3
:102E10001197670142E0C40ED11CCA14DB0478F19B
:102E200047018A189B08640142E0C40ED11C129627
:102E3000BC9012971396AC91B5E0CB16D10440F03C
:102E4000B282A38391828082D9018D939C9309C021
:102E50000E5F1F4F0E0D1F1DF90111830083EB2D17
:102E6000FA2F6115710531F0DB011396FC93EE9397
:102E7000129744C0F093F103E093F0033FC06D91CB
:102E80007C9111976616770608F43B01BD011296F6
:102E90000D90BC91A02DB4CF6091EE037091EF0323
:102EA00068157905E9F468167906D0F440910001B7
:102EB000509101014115510541F44DB75EB7609144
:102EC000040170910501461B570BE417F507C0F488
:102ED000F093EF03E093EE03F901918380830EC03A
:102EE0000E9496157C01009759F0A801BE010E942E
:102EF0008717CE010E942E16C70104C0CE0102C062
:102F000080E090E0CDB7DEB7EEE00C944E1DFB0103
:102F1000DC0102C001900D9241505040D8F7089555
:102F2000DC0101C06D9341505040E0F70895FB0172
:102F3000DC0101900D920020E1F708954532510522
:102F400020F4423010F00C94A917FB011082CB0141
:102F50000895BB274A3031F4992322F4BDE29095BD
:102F600081959F4F0C9407182532310520F42230AB
:102F700010F00C94BF17FA011082CA010895BB2704
:102F80002A3051F4992342F4BDE2909580957095D2
:102F900061957F4F8F4F9F4F0C94DA172532310583
:102FA00020F4223010F00C94D917FA011082CA01D3
:102FB0000895BB27FA01A62F6217710581059105B7
:102FC000330B30FB66F0AA27660F771F881F991F07
:102FD000AA1FA21710F0A21B63953850A9F7A05D95
:102FE000AA3308F0A95DA19336F7B111B19310820D
:102FF000CA010C948E1C4532510520F4423010F069
:103000000C940618FB011082CB010895BB27FB012D
:103010005527AA27880F991FAA1FA41710F0A41BD1
:1030200083955051B9F7A05DAA3308F0A95DA1932B
:10303000009779F7B111B1931192CB010C948E1CCA
:10304000AEE0B0E0E6E2F8E10C943C1D0D891E898B
:103050008F89988D26E02C831A83098397FF02C0FD
:1030600080E090E801979E838D83AE01455E5F4FBF
:10307000698D7A8DCE0101960E9450184D815E8136
:1030800057FD0AC02F813885421753070CF49A0167
:10309000F801E20FF31F10822E96E4E00C94581D05
:1030A000ACE0B0E0E6E5F8E10C942E1D7C016B018C
:1030B0008A01FC0117821682838181FFBDC1CE0186
:1030C00001964C01F7019381F60193FD859193FFE1
:1030D00081916F01882309F4ABC1853239F493FDE6
:1030E000859193FF81916F01853229F4B70190E0BA
:1030F0000E949E1CE7CF512C312C20E02032A0F4FE
:103100008B3269F030F4803259F0833269F42061F7
:103110002CC08D3239F0803339F4216026C0226012
:10312000246023C0286021C027FD27C030ED380F60
:103130003A3078F426FF06C0FAE05F9E300D112485
:10314000532E13C08AE0389E300D1124332E206296
:103150000CC08E3221F426FD6BC1206406C08C3673
:1031600011F4206802C0883641F4F60193FD859180
:1031700093FF81916F018111C1CF982F9F7D95544D
:10318000933028F40C5F1F4FFFE3F9830DC08336A3
:1031900031F0833771F0833509F05BC022C0F8014C
:1031A000808189830E5F1F4F44244394512C540126
:1031B00015C03801F2E06F0E711CF801A080B180DB
:1031C00026FF03C0652D70E002C06FEF7FEFC501E1
:1031D0002C870E94831C2C0183012C852F77222EA3
:1031E00017C03801F2E06F0E711CF801A080B180A9
:1031F00026FF03C0652D70E002C06FEF7FEFC501B1
:103200002C870E94781C2C012C852068222E83019B
:1032100023FC1BC0832D90E048165906B0F4B7017B
:1032200080E290E00E949E1C3A94F4CFF50127FCC6
:10323000859127FE81915F01B70190E00E949E1C5D
:1032400031103A94F1E04F1A51084114510471F7CA
:10325000E5C0843611F0893639F5F80127FF07C03B
:1032600060817181828193810C5F1F4F08C06081F2
:103270007181882777FD8095982F0E5F1F4F2F76DD
:10328000B22E97FF09C090958095709561957F4FFC
:103290008F4F9F4F2068B22E2AE030E0A4010E9499
:1032A000D01CA82EA81844C0853729F42F7EB22E32
:1032B0002AE030E025C0F22FF97FBF2E8F36C1F013
:1032C00018F4883579F0B4C0803719F0883721F0C8
:1032D000AFC02F2F2061B22EB4FE0DC08B2D8460A5
:1032E000B82E09C024FF0AC09F2F9660B92E06C0D1
:1032F00028E030E005C020E130E002C020E132E00B
:10330000F801B7FE07C060817181828193810C5FF3
:103310001F4F06C06081718180E090E00E5F1F4FFB
:10332000A4010E94D01CA82EA818FB2DFF77BF2E49
:10333000B6FE0BC02B2D2E7FA51450F4B4FE0AC090
:10334000B2FC08C02B2D2E7E05C07A2C2B2D03C07D
:103350007A2C01C0752C24FF0DC0FE01EA0DF11D71
:103360008081803311F4297E09C022FF06C0739446
:10337000739404C0822F867809F0739423FD13C0E0
:1033800020FF06C05A2C731418F4530C5718732CD2
:10339000731468F4B70180E290E02C870E949E1CB1
:1033A00073942C85F5CF731410F4371801C0312CA9
:1033B00024FF12C0B70180E390E02C870E949E1C7E
:1033C0002C8522FF17C021FF03C088E590E002C0D2
:1033D00088E790E0B7010CC0822F867859F021FD74
:1033E00002C080E201C08BE227FD8DE2B70190E0D0
:1033F0000E949E1CA51438F4B70180E390E00E945F
:103400009E1C5A94F7CFAA94F401EA0DF11D808115
:10341000B70190E00E949E1CA110F5CF332009F463
:1034200051CEB70180E290E00E949E1C3A94F6CF04
:10343000F7018681978102C08FEF9FEF2C96E2E122
:103440000C944A1D6F927F929F92AF92BF92CF923F
:10345000DF92EF92FF920F931F93CF93DF93CDB73D
:10346000DEB729970FB6F894DEBF0FBECDBF6A0155
:10347000B22E102F0C3320F4FF24F394F00E02C070
:103480004CE3F42E0F2D27E0AE014F5F5F4F0E94FB
:10349000A01B7981272F2970213031F0E1FC06C073
:1034A000E0FC06C060E005C06DE203C06BE201C055
:1034B00060E2AE2DA07173FF36C0662311F084E088
:1034C00001C083E08B1510F4B81A01C0B12CA11112
:1034D0000BC0F6018B2D90E2882319F09193815057
:1034E000FBCFCB0CD11CB12C662331F0F6016083ED
:1034F00096012F5F3F4F6901C6010396E2FE05C0AA
:103500002EE4F601208331E404C02EE6F601208388
:1035100031E631832283FC012B2D30E22223F1F1AD
:1035200031932150FBCF72FF40C0662311F084E03D
:1035300001C083E08B1510F4B81A01C0B12CA111A1
:103540000BC0F6018B2D90E2882319F091938150E6
:10355000FBCFCB0CD11CB12C662331F0F60160837C
:1035600096012F5F3F4F6901C6010396E2FE07C037
:1035700029E4F60120832EE4218326E406C029E60F
:10358000F60120832EE6218326E62283FC012B2DE3
:1035900030E2222319F031932150FBCFFC01EB0DD7
:1035A000F11D10828EEF9FEFB7C0B1E0611101C035
:1035B000B0E04B2F50E01816190624F49C012F5F41
:1035C0003F4F02C021E030E0240F351F112329F0C6
:1035D000412F50E04F5F5F4F02C040E050E0420F8C
:1035E000531F2B2D30E04217530714F4B41A01C0B7
:1035F000B12C2E2D287159F4F6012B2D30E2222307
:1036000019F031932150FBCFCB0CD11CB12CBB2333
:1036100031F0F601608396012F5F3F4F6901A111E0
:103620000BC0F6012B2D30E3222319F031932150EA
:10363000FBCFCB0CD11CB12CF80E0A81372F307187
:10364000A32E74FF03C0013309F4FA941F142CF461
:103650002F2D293018F028E001C021E0682F392FE4
:1036600097FF02C060E030E0462F532F612C712C91
:103670003EE2932EBC01621B71099B01DC01A41B7D
:10368000B50BE1E0F0E0EC0FFD1FAE0FBF1FE12E28
:10369000F12CF194E194F1084F3FFFEF5F0731F413
:1036A000F6019082B6016F5F7F4F6B01841795071B
:1036B0004CF02417350734F4BD01660D771DFB016E
:1036C000118101C010E341505109FFEF6F1A7F0AC9
:1036D000B6016F5F7F4F4E155F0524F0F601108332
:1036E0006B01DACF4817590739F4063320F4053354
:1036F00019F4A11001C011E3F6011083FB018B2D19
:1037000090E2882319F091938150FBCFFB01EB0DE0
:10371000F11D108280E090E029960FB6F894DEBF8C
:103720000FBECDBFDF91CF911F910F91FF90EF9012
:10373000DF90CF90BF90AF909F907F906F90089553
:10374000283008F027E03327DA01990F311D87FD73
:10375000916000966105710539F432602E5F3D93EA
:1037600030E32A95E1F708959F3F30F080387105E6
:10377000610509F03C5F3C5F3D93913008F0806843
:10378000911DDF93CF931F930F93FF92EF92192F09
:10379000987F9695E92F96959695E90FFF27E15921
:1037A000FE4F99273327EE24FF24A701E701059058
:1037B0000894079428F4360FE71EF81E491F511D80
:1037C000660F771F881F991F0694A1F7059007942D
:1037D00028F4E70EF81E491F561FC11D770F881FDA
:1037E000991F661F0694A1F70590079428F4F80E18
:1037F000491F561FC71FD11D880F991F661F771FAE
:103800000694A1F70590079420F4490F561FC71F8F
:10381000D81F990F661F771F881F0694A9F78491F8
:103820001095177041F0D695C79557954795F79421
:10383000E7941A95C1F7E5E1F1E0689415901591C8
:1038400035916591959105907FE27395E118F10AA4
:10385000430B560BC90BD009C0F7E10CF11E431FF7
:10386000561FC91FD01D7EF4703311F48A95E6CF20
:10387000E894015030F0080F0AF40027021708F40A
:10388000202F2395022F7A3328F079E37D932A9510
:10389000E9F710C07D932A9589F606949795679568
:1038A000379517951794E118F10A430B560BC90B7E
:1038B000D00998F023957E9173957A3308F070E3E0
:1038C0007C932013B8F77E9170617D9330F08395DF
:1038D00071E37D9370E32A95E1F71124EF90FF9057
:1038E0000F911F91CF91DF91992787FD90950895B2
:1038F000FC010590615070400110D8F780959095BB
:103900008E0F9F1F0895FC016150704001900110BF
:10391000D8F7809590958E0F9F1F0895DC01FC01CC
:10392000672F71917723E1F7329704C07C916D93F3
:1039300070836291AE17BF07C8F308950F931F936A
:10394000CF93DF93182F092FEB018B8181FD03C0EB
:103950008FEF9FEF20C082FF10C04E815F812C81CE
:103960003D81421753077CF4E881F9819F012F5F65
:103970003F4F39832883108306C0E885F985812F5E
:103980000995892B29F72E813F812F5F3F4F3F8378
:103990002E83812F902FDF91CF911F910F9108954A
:1039A000FA01AA27283051F1203181F1E8946F9370
:1039B0006E7F6E5F7F4F8F4F9F4FAF4FB1E03ED016
:1039C000B4E03CD0670F781F891F9A1FA11D680FB4
:1039D000791F8A1F911DA11D6A0F711D811D911DE7
:1039E000A11D20D009F468943F912AE0269F11245C
:1039F0003019305D3193DEF6CF010895462F4770C0
:103A0000405D4193B3E00FD0C9F7F6CF462F4F701A
:103A1000405D4A3318F0495D31FD4052419302D078
:103A2000A9F7EACFB4E0A69597958795779567951E
:103A3000BA95C9F700976105710508959B01AC011E
:103A40000A2E06945795479537952795BA95C9F745
:103A5000620F731F841F951FA01D08952F923F9220
:103A60004F925F926F927F928F929F92AF92BF928E
:103A7000CF92DF92EF92FF920F931F93CF93DF933A
:103A8000CDB7DEB7CA1BDB0B0FB6F894DEBF0FBE97
:103A9000CDBF09942A88398848885F846E847D84E4
:103AA0008C849B84AA84B984C884DF80EE80FD80E6
:103AB0000C811B81AA81B981CE0FD11D0FB6F8945C
:103AC000DEBF0FBECDBFED01089512E0C6E1D2E02A
:103AD00004C0FE010E9471152296C831D107C9F7B2
:043AE000F894FFCF88
:103AE4000000F20380000100000001FF2500300007
:103AF400257800255800747275650066616C7365DD
:103B040000253032643A253032643A253264005458
:103B1400696D654F757420636F756E7465723A25AF
:103B24006C2C206475726174696F6E3A256C2C205C
:103B340074696D653A256C0043616E6E6F74206321
:103B440068616E6765206365696C696E672C2062C5
:103B5400656C6F7720697373756564206164647242
:103B6400657373657300417474656D707420746F4C
:103B7400207772697465206F757473696465206F4A
:103B84006620454550524F4D206D656D6F7279002A
:103B94004578636565646564206D6178696D756DEC
:103BA400206E756D626572206F6620777269746528
:103BB400730020005F3862697456616C3A25642C86
:103BC4002076616C3A25642C20743A2564004C6993
:103BD40067687453656E736F72427574746F6E2880
:103BE40025733A256429207B2076616C75653A2516
:103BF400642C20646966663A25642C2064696666D0
:103C040050657263656E743A25662525207D005BD8
:103C1400005D007E004C6967687453656E736F7253
:103C2400427574746F6E28256429205065726D6125
:103C34006E656E74206C69676874206368616E6772
:103C440065206465746563746564005B25645D2048
:103C5400486569676874427974653A2564207661B9
:103C64006C3A2564206D617856616C3A2564206253
:103C740075663A257300000000005910D511DB0F5A
:103C8400F40FE60F37100D0A006E616E00696E6660
:083C9400006F7666002E0000AF
:00000001FF
